{
  "_format": "hh-sol-artifact-1",
  "contractName": "ETHPool",
  "sourceName": "contracts/ETHPool.sol",
  "abi": [
    {
      "inputs": [
        {
          "internalType": "address[]",
          "name": "team_",
          "type": "address[]"
        }
      ],
      "stateMutability": "nonpayable",
      "type": "constructor"
    },
    {
      "anonymous": false,
      "inputs": [
        {
          "indexed": false,
          "internalType": "address",
          "name": "sender",
          "type": "address"
        },
        {
          "indexed": false,
          "internalType": "uint256",
          "name": "value",
          "type": "uint256"
        }
      ],
      "name": "Deposit",
      "type": "event"
    },
    {
      "anonymous": false,
      "inputs": [
        {
          "indexed": false,
          "internalType": "address",
          "name": "receiver",
          "type": "address"
        },
        {
          "indexed": false,
          "internalType": "uint256",
          "name": "value",
          "type": "uint256"
        }
      ],
      "name": "Reward",
      "type": "event"
    },
    {
      "anonymous": false,
      "inputs": [
        {
          "indexed": false,
          "internalType": "address",
          "name": "sender",
          "type": "address"
        },
        {
          "indexed": false,
          "internalType": "uint256",
          "name": "value",
          "type": "uint256"
        }
      ],
      "name": "WithdrawDeposit",
      "type": "event"
    },
    {
      "anonymous": false,
      "inputs": [
        {
          "indexed": false,
          "internalType": "address",
          "name": "sender",
          "type": "address"
        },
        {
          "indexed": false,
          "internalType": "uint256",
          "name": "value",
          "type": "uint256"
        }
      ],
      "name": "WithdrawReward",
      "type": "event"
    },
    {
      "inputs": [
        {
          "internalType": "uint256",
          "name": "",
          "type": "uint256"
        }
      ],
      "name": "_team",
      "outputs": [
        {
          "internalType": "address",
          "name": "",
          "type": "address"
        }
      ],
      "stateMutability": "view",
      "type": "function"
    },
    {
      "inputs": [],
      "name": "allDeposits",
      "outputs": [
        {
          "internalType": "uint256",
          "name": "",
          "type": "uint256"
        }
      ],
      "stateMutability": "view",
      "type": "function"
    },
    {
      "inputs": [],
      "name": "deposit",
      "outputs": [],
      "stateMutability": "payable",
      "type": "function"
    },
    {
      "inputs": [],
      "name": "depositReward",
      "outputs": [],
      "stateMutability": "payable",
      "type": "function"
    },
    {
      "inputs": [],
      "name": "getDepositInPool",
      "outputs": [
        {
          "internalType": "uint256",
          "name": "",
          "type": "uint256"
        }
      ],
      "stateMutability": "view",
      "type": "function"
    },
    {
      "inputs": [],
      "name": "getRewardInPool",
      "outputs": [
        {
          "internalType": "uint256",
          "name": "",
          "type": "uint256"
        }
      ],
      "stateMutability": "view",
      "type": "function"
    },
    {
      "inputs": [],
      "name": "name",
      "outputs": [
        {
          "internalType": "string",
          "name": "",
          "type": "string"
        }
      ],
      "stateMutability": "view",
      "type": "function"
    },
    {
      "inputs": [
        {
          "internalType": "uint256",
          "name": "",
          "type": "uint256"
        }
      ],
      "name": "poolMembers",
      "outputs": [
        {
          "internalType": "address",
          "name": "",
          "type": "address"
        }
      ],
      "stateMutability": "view",
      "type": "function"
    },
    {
      "inputs": [],
      "name": "symbol",
      "outputs": [
        {
          "internalType": "string",
          "name": "",
          "type": "string"
        }
      ],
      "stateMutability": "view",
      "type": "function"
    },
    {
      "inputs": [
        {
          "internalType": "uint256",
          "name": "amount",
          "type": "uint256"
        }
      ],
      "name": "withdrawDeposit",
      "outputs": [],
      "stateMutability": "nonpayable",
      "type": "function"
    },
    {
      "inputs": [
        {
          "internalType": "uint256",
          "name": "amount",
          "type": "uint256"
        }
      ],
      "name": "withdrawReward",
      "outputs": [],
      "stateMutability": "nonpayable",
      "type": "function"
    }
  ],
  "bytecode": "0x60806040526040518060400160405280600781526020017f455448506f6f6c00000000000000000000000000000000000000000000000000815250600090805190602001906200005192919062000156565b506040518060400160405280600481526020017f4554485000000000000000000000000000000000000000000000000000000000815250600190805190602001906200009f92919062000156565b50348015620000ad57600080fd5b50604051620017e3380380620017e38339818101604052810190620000d391906200034e565b8060029080519060200190620000eb929190620001e7565b506002339080600181540180825580915050600190039060005260206000200160009091909190916101000a81548173ffffffffffffffffffffffffffffffffffffffff021916908373ffffffffffffffffffffffffffffffffffffffff16021790555050620004d8565b82805462000164906200042a565b90600052602060002090601f016020900481019282620001885760008555620001d4565b82601f10620001a357805160ff1916838001178555620001d4565b82800160010185558215620001d4579182015b82811115620001d3578251825591602001919060010190620001b6565b5b509050620001e3919062000276565b5090565b82805482825590600052602060002090810192821562000263579160200282015b82811115620002625782518260006101000a81548173ffffffffffffffffffffffffffffffffffffffff021916908373ffffffffffffffffffffffffffffffffffffffff1602179055509160200191906001019062000208565b5b50905062000272919062000276565b5090565b5b808211156200029157600081600090555060010162000277565b5090565b6000620002ac620002a684620003c7565b62000393565b90508083825260208201905082856020860282011115620002cc57600080fd5b60005b85811015620003005781620002e588826200030a565b845260208401935060208301925050600181019050620002cf565b5050509392505050565b6000815190506200031b81620004be565b92915050565b600082601f8301126200033357600080fd5b81516200034584826020860162000295565b91505092915050565b6000602082840312156200036157600080fd5b600082015167ffffffffffffffff8111156200037c57600080fd5b6200038a8482850162000321565b91505092915050565b6000604051905081810181811067ffffffffffffffff82111715620003bd57620003bc6200048f565b5b8060405250919050565b600067ffffffffffffffff821115620003e557620003e46200048f565b5b602082029050602081019050919050565b600062000403826200040a565b9050919050565b600073ffffffffffffffffffffffffffffffffffffffff82169050919050565b600060028204905060018216806200044357607f821691505b602082108114156200045a576200045962000460565b5b50919050565b7f4e487b7100000000000000000000000000000000000000000000000000000000600052602260045260246000fd5b7f4e487b7100000000000000000000000000000000000000000000000000000000600052604160045260246000fd5b620004c981620003f6565b8114620004d557600080fd5b50565b6112fb80620004e86000396000f3fe60806040526004361061009c5760003560e01c80635ec2dc8d116100645780635ec2dc8d146101865780636855cbb8146101905780636ffc8f82146101cd57806395d89b41146101f8578063aca5237f14610223578063d0e30db01461024e5761009c565b806306fdde03146100a1578063204fce94146100cc57806333289a4614610109578063523a3f0814610132578063576570811461015b575b600080fd5b3480156100ad57600080fd5b506100b6610258565b6040516100c39190610f8d565b60405180910390f35b3480156100d857600080fd5b506100f360048036038101906100ee9190610e5a565b6102e6565b6040516101009190610f49565b60405180910390f35b34801561011557600080fd5b50610130600480360381019061012b9190610e5a565b610325565b005b34801561013e57600080fd5b5061015960048036038101906101549190610e5a565b6104af565b005b34801561016757600080fd5b5061017061063a565b60405161017d9190610fcf565b60405180910390f35b61018e61071d565b005b34801561019c57600080fd5b506101b760048036038101906101b29190610e5a565b610ab3565b6040516101c49190610f49565b60405180910390f35b3480156101d957600080fd5b506101e2610af2565b6040516101ef9190610fcf565b60405180910390f35b34801561020457600080fd5b5061020d610b39565b60405161021a9190610f8d565b60405180910390f35b34801561022f57600080fd5b50610238610bc7565b6040516102459190610fcf565b60405180910390f35b610256610c0e565b005b6000805461026590611195565b80601f016020809104026020016040519081016040528092919081815260200182805461029190611195565b80156102de5780601f106102b3576101008083540402835291602001916102de565b820191906000526020600020905b8154815290600101906020018083116102c157829003601f168201915b505050505081565b600281815481106102f657600080fd5b906000526020600020016000915054906101000a900473ffffffffffffffffffffffffffffffffffffffff1681565b80600460003373ffffffffffffffffffffffffffffffffffffffff1673ffffffffffffffffffffffffffffffffffffffff168152602001908152602001600020541161037057600080fd5b80600460003373ffffffffffffffffffffffffffffffffffffffff1673ffffffffffffffffffffffffffffffffffffffff16815260200190815260200160002060008282546103bf91906110f2565b925050819055507f195ddc41d185a27fe901831dcad44dd85716c95be78b1d71aa42393697966d4033826040516103f7929190610f64565b60405180910390a160003373ffffffffffffffffffffffffffffffffffffffff168260405161042590610f34565b60006040518083038185875af1925050503d8060008114610462576040519150601f19603f3d011682016040523d82523d6000602084013e610467565b606091505b50509050806104ab576040517f08c379a00000000000000000000000000000000000000000000000000000000081526004016104a290610faf565b60405180910390fd5b5050565b80600560003373ffffffffffffffffffffffffffffffffffffffff1673ffffffffffffffffffffffffffffffffffffffff1681526020019081526020016000205410156104fb57600080fd5b80600560003373ffffffffffffffffffffffffffffffffffffffff1673ffffffffffffffffffffffffffffffffffffffff168152602001908152602001600020600082825461054a91906110f2565b925050819055507fbc84835063c693975166f00cffb19f01a94c2db55b1bf259238c5da3594e50663382604051610582929190610f64565b60405180910390a160003373ffffffffffffffffffffffffffffffffffffffff16826040516105b090610f34565b60006040518083038185875af1925050503d80600081146105ed576040519150601f19603f3d011682016040523d82523d6000602084013e6105f2565b606091505b5050905080610636576040517f08c379a000000000000000000000000000000000000000000000000000000000815260040161062d90610faf565b60405180910390fd5b5050565b6000806000905060005b60038054905081101561071557600460006003838154811061068f577f4e487b7100000000000000000000000000000000000000000000000000000000600052603260045260246000fd5b9060005260206000200160009054906101000a900473ffffffffffffffffffffffffffffffffffffffff1673ffffffffffffffffffffffffffffffffffffffff1673ffffffffffffffffffffffffffffffffffffffff16815260200190815260200160002054826107009190611011565b9150808061070d906111c7565b915050610644565b508091505090565b6107ad60028054806020026020016040519081016040528092919081815260200182805480156107a257602002820191906000526020600020905b8160009054906101000a900473ffffffffffffffffffffffffffffffffffffffff1673ffffffffffffffffffffffffffffffffffffffff1681526020019060010190808311610758575b505050505033610d97565b6107b657600080fd5b60005b600380549050811015610ab0576107ce61063a565b600460006003848154811061080c577f4e487b7100000000000000000000000000000000000000000000000000000000600052603260045260246000fd5b9060005260206000200160009054906101000a900473ffffffffffffffffffffffffffffffffffffffff1673ffffffffffffffffffffffffffffffffffffffff1673ffffffffffffffffffffffffffffffffffffffff168152602001908152602001600020543461087d9190611098565b6108879190611067565b60056000600384815481106108c5577f4e487b7100000000000000000000000000000000000000000000000000000000600052603260045260246000fd5b9060005260206000200160009054906101000a900473ffffffffffffffffffffffffffffffffffffffff1673ffffffffffffffffffffffffffffffffffffffff1673ffffffffffffffffffffffffffffffffffffffff16815260200190815260200160002060008282546109399190611011565b925050819055507f619caafabdd75649b302ba8419e48cccf64f37f1983ac4727cfb38b57703ffc96003828154811061099b577f4e487b7100000000000000000000000000000000000000000000000000000000600052603260045260246000fd5b9060005260206000200160009054906101000a900473ffffffffffffffffffffffffffffffffffffffff166109ce61063a565b6004600060038681548110610a0c577f4e487b7100000000000000000000000000000000000000000000000000000000600052603260045260246000fd5b9060005260206000200160009054906101000a900473ffffffffffffffffffffffffffffffffffffffff1673ffffffffffffffffffffffffffffffffffffffff1673ffffffffffffffffffffffffffffffffffffffff1681526020019081526020016000205434610a7d9190611098565b610a879190611067565b604051610a95929190610f64565b60405180910390a18080610aa8906111c7565b9150506107b9565b50565b60038181548110610ac357600080fd5b906000526020600020016000915054906101000a900473ffffffffffffffffffffffffffffffffffffffff1681565b6000600460003373ffffffffffffffffffffffffffffffffffffffff1673ffffffffffffffffffffffffffffffffffffffff16815260200190815260200160002054905090565b60018054610b4690611195565b80601f0160208091040260200160405190810160405280929190818152602001828054610b7290611195565b8015610bbf5780601f10610b9457610100808354040283529160200191610bbf565b820191906000526020600020905b815481529060010190602001808311610ba257829003601f168201915b505050505081565b6000600560003373ffffffffffffffffffffffffffffffffffffffff1673ffffffffffffffffffffffffffffffffffffffff16815260200190815260200160002054905090565b34600460003373ffffffffffffffffffffffffffffffffffffffff1673ffffffffffffffffffffffffffffffffffffffff1681526020019081526020016000206000828254610c5d9190611011565b925050819055507fe1fffcc4923d04b559f4d29a8bfc6cda04eb5b0d3c460751c2402c5c5cc9109c3334604051610c95929190610f64565b60405180910390a1610d2d6003805480602002602001604051908101604052809291908181526020018280548015610d2257602002820191906000526020600020905b8160009054906101000a900473ffffffffffffffffffffffffffffffffffffffff1673ffffffffffffffffffffffffffffffffffffffff1681526020019060010190808311610cd8575b505050505033610d97565b610d95576003339080600181540180825580915050600190039060005260206000200160009091909190916101000a81548173ffffffffffffffffffffffffffffffffffffffff021916908373ffffffffffffffffffffffffffffffffffffffff1602179055505b565b600080600090505b8351811015610e39578273ffffffffffffffffffffffffffffffffffffffff16848281518110610df8577f4e487b7100000000000000000000000000000000000000000000000000000000600052603260045260246000fd5b602002602001015173ffffffffffffffffffffffffffffffffffffffff161415610e26576001915050610e3f565b8080610e31906111c7565b915050610d9f565b50600090505b92915050565b600081359050610e54816112ae565b92915050565b600060208284031215610e6c57600080fd5b6000610e7a84828501610e45565b91505092915050565b610e8c81611126565b82525050565b6000610e9d82610fea565b610ea78185611000565b9350610eb7818560208601611162565b610ec08161129d565b840191505092915050565b6000610ed8600083610ff5565b9150600082019050919050565b6000610ef2601183611000565b91507f436f756c646e2774207472616e736665720000000000000000000000000000006000830152602082019050919050565b610f2e81611158565b82525050565b6000610f3f82610ecb565b9150819050919050565b6000602082019050610f5e6000830184610e83565b92915050565b6000604082019050610f796000830185610e83565b610f866020830184610f25565b9392505050565b60006020820190508181036000830152610fa78184610e92565b905092915050565b60006020820190508181036000830152610fc881610ee5565b9050919050565b6000602082019050610fe46000830184610f25565b92915050565b600081519050919050565b600081905092915050565b600082825260208201905092915050565b600061101c82611158565b915061102783611158565b9250827fffffffffffffffffffffffffffffffffffffffffffffffffffffffffffffffff0382111561105c5761105b611210565b5b828201905092915050565b600061107282611158565b915061107d83611158565b92508261108d5761108c61123f565b5b828204905092915050565b60006110a382611158565b91506110ae83611158565b9250817fffffffffffffffffffffffffffffffffffffffffffffffffffffffffffffffff04831182151516156110e7576110e6611210565b5b828202905092915050565b60006110fd82611158565b915061110883611158565b92508282101561111b5761111a611210565b5b828203905092915050565b600061113182611138565b9050919050565b600073ffffffffffffffffffffffffffffffffffffffff82169050919050565b6000819050919050565b60005b83811015611180578082015181840152602081019050611165565b8381111561118f576000848401525b50505050565b600060028204905060018216806111ad57607f821691505b602082108114156111c1576111c061126e565b5b50919050565b60006111d282611158565b91507fffffffffffffffffffffffffffffffffffffffffffffffffffffffffffffffff82141561120557611204611210565b5b600182019050919050565b7f4e487b7100000000000000000000000000000000000000000000000000000000600052601160045260246000fd5b7f4e487b7100000000000000000000000000000000000000000000000000000000600052601260045260246000fd5b7f4e487b7100000000000000000000000000000000000000000000000000000000600052602260045260246000fd5b6000601f19601f8301169050919050565b6112b781611158565b81146112c257600080fd5b5056fea264697066735822122079a07d84b682df06fe56d8c9bb0e11efb281ff494a9f5204728e876fc164455364736f6c63430008000033",
  "linkReferences": {},
  "deployedLinkReferences": {}
}