{
  "_format": "hh-sol-artifact-1",
  "contractName": "ETHPool",
  "sourceName": "contracts/ETHPool.sol",
  "abi": [
    {
      "inputs": [
        {
          "internalType": "address[]",
          "name": "team_",
          "type": "address[]"
        }
      ],
      "stateMutability": "nonpayable",
      "type": "constructor"
    },
    {
      "inputs": [
        {
          "internalType": "uint256",
          "name": "",
          "type": "uint256"
        }
      ],
      "name": "_team",
      "outputs": [
        {
          "internalType": "address",
          "name": "",
          "type": "address"
        }
      ],
      "stateMutability": "view",
      "type": "function"
    },
    {
      "inputs": [],
      "name": "allDeposits",
      "outputs": [
        {
          "internalType": "uint256",
          "name": "",
          "type": "uint256"
        }
      ],
      "stateMutability": "view",
      "type": "function"
    },
    {
      "inputs": [],
      "name": "deposit",
      "outputs": [],
      "stateMutability": "payable",
      "type": "function"
    },
    {
      "inputs": [],
      "name": "depositReward",
      "outputs": [],
      "stateMutability": "payable",
      "type": "function"
    },
    {
      "inputs": [],
      "name": "getDepositInPool",
      "outputs": [
        {
          "internalType": "uint256",
          "name": "",
          "type": "uint256"
        }
      ],
      "stateMutability": "view",
      "type": "function"
    },
    {
      "inputs": [],
      "name": "getRewardInPool",
      "outputs": [
        {
          "internalType": "uint256",
          "name": "",
          "type": "uint256"
        }
      ],
      "stateMutability": "view",
      "type": "function"
    },
    {
      "inputs": [],
      "name": "name",
      "outputs": [
        {
          "internalType": "string",
          "name": "",
          "type": "string"
        }
      ],
      "stateMutability": "view",
      "type": "function"
    },
    {
      "inputs": [
        {
          "internalType": "uint256",
          "name": "",
          "type": "uint256"
        }
      ],
      "name": "poolMembers",
      "outputs": [
        {
          "internalType": "address",
          "name": "",
          "type": "address"
        }
      ],
      "stateMutability": "view",
      "type": "function"
    },
    {
      "inputs": [],
      "name": "symbol",
      "outputs": [
        {
          "internalType": "string",
          "name": "",
          "type": "string"
        }
      ],
      "stateMutability": "view",
      "type": "function"
    },
    {
      "inputs": [
        {
          "internalType": "uint256",
          "name": "amount",
          "type": "uint256"
        }
      ],
      "name": "withdrawDeposit",
      "outputs": [],
      "stateMutability": "nonpayable",
      "type": "function"
    },
    {
      "inputs": [
        {
          "internalType": "uint256",
          "name": "amount",
          "type": "uint256"
        }
      ],
      "name": "withdrawReward",
      "outputs": [],
      "stateMutability": "nonpayable",
      "type": "function"
    }
  ],
  "bytecode": "0x60806040526040518060400160405280600781526020017f455448506f6f6c00000000000000000000000000000000000000000000000000815250600090805190602001906200005192919062000156565b506040518060400160405280600481526020017f4554485000000000000000000000000000000000000000000000000000000000815250600190805190602001906200009f92919062000156565b50348015620000ad57600080fd5b50604051620015b2380380620015b28339818101604052810190620000d391906200034e565b8060029080519060200190620000eb929190620001e7565b506002339080600181540180825580915050600190039060005260206000200160009091909190916101000a81548173ffffffffffffffffffffffffffffffffffffffff021916908373ffffffffffffffffffffffffffffffffffffffff16021790555050620004d8565b82805462000164906200042a565b90600052602060002090601f016020900481019282620001885760008555620001d4565b82601f10620001a357805160ff1916838001178555620001d4565b82800160010185558215620001d4579182015b82811115620001d3578251825591602001919060010190620001b6565b5b509050620001e3919062000276565b5090565b82805482825590600052602060002090810192821562000263579160200282015b82811115620002625782518260006101000a81548173ffffffffffffffffffffffffffffffffffffffff021916908373ffffffffffffffffffffffffffffffffffffffff1602179055509160200191906001019062000208565b5b50905062000272919062000276565b5090565b5b808211156200029157600081600090555060010162000277565b5090565b6000620002ac620002a684620003c7565b62000393565b90508083825260208201905082856020860282011115620002cc57600080fd5b60005b85811015620003005781620002e588826200030a565b845260208401935060208301925050600181019050620002cf565b5050509392505050565b6000815190506200031b81620004be565b92915050565b600082601f8301126200033357600080fd5b81516200034584826020860162000295565b91505092915050565b6000602082840312156200036157600080fd5b600082015167ffffffffffffffff8111156200037c57600080fd5b6200038a8482850162000321565b91505092915050565b6000604051905081810181811067ffffffffffffffff82111715620003bd57620003bc6200048f565b5b8060405250919050565b600067ffffffffffffffff821115620003e557620003e46200048f565b5b602082029050602081019050919050565b600062000403826200040a565b9050919050565b600073ffffffffffffffffffffffffffffffffffffffff82169050919050565b600060028204905060018216806200044357607f821691505b602082108114156200045a576200045962000460565b5b50919050565b7f4e487b7100000000000000000000000000000000000000000000000000000000600052602260045260246000fd5b7f4e487b7100000000000000000000000000000000000000000000000000000000600052604160045260246000fd5b620004c981620003f6565b8114620004d557600080fd5b50565b6110ca80620004e86000396000f3fe60806040526004361061009c5760003560e01c80635ec2dc8d116100645780635ec2dc8d146101865780636855cbb8146101905780636ffc8f82146101cd57806395d89b41146101f8578063aca5237f14610223578063d0e30db01461024e5761009c565b806306fdde03146100a1578063204fce94146100cc57806333289a4614610109578063523a3f0814610132578063576570811461015b575b600080fd5b3480156100ad57600080fd5b506100b6610258565b6040516100c39190610d5c565b60405180910390f35b3480156100d857600080fd5b506100f360048036038101906100ee9190610c52565b6102e6565b6040516101009190610d41565b60405180910390f35b34801561011557600080fd5b50610130600480360381019061012b9190610c52565b610325565b005b34801561013e57600080fd5b5061015960048036038101906101549190610c52565b610476565b005b34801561016757600080fd5b506101706105c8565b60405161017d9190610d9e565b60405180910390f35b61018e6106ab565b005b34801561019c57600080fd5b506101b760048036038101906101b29190610c52565b6108e4565b6040516101c49190610d41565b60405180910390f35b3480156101d957600080fd5b506101e2610923565b6040516101ef9190610d9e565b60405180910390f35b34801561020457600080fd5b5061020d61096a565b60405161021a9190610d5c565b60405180910390f35b34801561022f57600080fd5b506102386109f8565b6040516102459190610d9e565b60405180910390f35b610256610a3f565b005b6000805461026590610f64565b80601f016020809104026020016040519081016040528092919081815260200182805461029190610f64565b80156102de5780601f106102b3576101008083540402835291602001916102de565b820191906000526020600020905b8154815290600101906020018083116102c157829003601f168201915b505050505081565b600281815481106102f657600080fd5b906000526020600020016000915054906101000a900473ffffffffffffffffffffffffffffffffffffffff1681565b80600460003373ffffffffffffffffffffffffffffffffffffffff1673ffffffffffffffffffffffffffffffffffffffff168152602001908152602001600020541161037057600080fd5b80600460003373ffffffffffffffffffffffffffffffffffffffff1673ffffffffffffffffffffffffffffffffffffffff16815260200190815260200160002060008282546103bf9190610ec1565b9250508190555060003373ffffffffffffffffffffffffffffffffffffffff16826040516103ec90610d2c565b60006040518083038185875af1925050503d8060008114610429576040519150601f19603f3d011682016040523d82523d6000602084013e61042e565b606091505b5050905080610472576040517f08c379a000000000000000000000000000000000000000000000000000000000815260040161046990610d7e565b60405180910390fd5b5050565b80600560003373ffffffffffffffffffffffffffffffffffffffff1673ffffffffffffffffffffffffffffffffffffffff1681526020019081526020016000205410156104c257600080fd5b80600560003373ffffffffffffffffffffffffffffffffffffffff1673ffffffffffffffffffffffffffffffffffffffff16815260200190815260200160002060008282546105119190610ec1565b9250508190555060003373ffffffffffffffffffffffffffffffffffffffff168260405161053e90610d2c565b60006040518083038185875af1925050503d806000811461057b576040519150601f19603f3d011682016040523d82523d6000602084013e610580565b606091505b50509050806105c4576040517f08c379a00000000000000000000000000000000000000000000000000000000081526004016105bb90610d7e565b60405180910390fd5b5050565b6000806000905060005b6003805490508110156106a357600460006003838154811061061d577f4e487b7100000000000000000000000000000000000000000000000000000000600052603260045260246000fd5b9060005260206000200160009054906101000a900473ffffffffffffffffffffffffffffffffffffffff1673ffffffffffffffffffffffffffffffffffffffff1673ffffffffffffffffffffffffffffffffffffffff168152602001908152602001600020548261068e9190610de0565b9150808061069b90610f96565b9150506105d2565b508091505090565b61073b600280548060200260200160405190810160405280929190818152602001828054801561073057602002820191906000526020600020905b8160009054906101000a900473ffffffffffffffffffffffffffffffffffffffff1673ffffffffffffffffffffffffffffffffffffffff16815260200190600101908083116106e6575b505050505033610b8f565b61074457600080fd5b60005b6003805490508110156108e15761075c6105c8565b600460006003848154811061079a577f4e487b7100000000000000000000000000000000000000000000000000000000600052603260045260246000fd5b9060005260206000200160009054906101000a900473ffffffffffffffffffffffffffffffffffffffff1673ffffffffffffffffffffffffffffffffffffffff1673ffffffffffffffffffffffffffffffffffffffff168152602001908152602001600020543461080b9190610e67565b6108159190610e36565b6005600060038481548110610853577f4e487b7100000000000000000000000000000000000000000000000000000000600052603260045260246000fd5b9060005260206000200160009054906101000a900473ffffffffffffffffffffffffffffffffffffffff1673ffffffffffffffffffffffffffffffffffffffff1673ffffffffffffffffffffffffffffffffffffffff16815260200190815260200160002060008282546108c79190610de0565b9250508190555080806108d990610f96565b915050610747565b50565b600381815481106108f457600080fd5b906000526020600020016000915054906101000a900473ffffffffffffffffffffffffffffffffffffffff1681565b6000600460003373ffffffffffffffffffffffffffffffffffffffff1673ffffffffffffffffffffffffffffffffffffffff16815260200190815260200160002054905090565b6001805461097790610f64565b80601f01602080910402602001604051908101604052809291908181526020018280546109a390610f64565b80156109f05780601f106109c5576101008083540402835291602001916109f0565b820191906000526020600020905b8154815290600101906020018083116109d357829003601f168201915b505050505081565b6000600560003373ffffffffffffffffffffffffffffffffffffffff1673ffffffffffffffffffffffffffffffffffffffff16815260200190815260200160002054905090565b34600460003373ffffffffffffffffffffffffffffffffffffffff1673ffffffffffffffffffffffffffffffffffffffff1681526020019081526020016000206000828254610a8e9190610de0565b92505081905550610b256003805480602002602001604051908101604052809291908181526020018280548015610b1a57602002820191906000526020600020905b8160009054906101000a900473ffffffffffffffffffffffffffffffffffffffff1673ffffffffffffffffffffffffffffffffffffffff1681526020019060010190808311610ad0575b505050505033610b8f565b610b8d576003339080600181540180825580915050600190039060005260206000200160009091909190916101000a81548173ffffffffffffffffffffffffffffffffffffffff021916908373ffffffffffffffffffffffffffffffffffffffff1602179055505b565b600080600090505b8351811015610c31578273ffffffffffffffffffffffffffffffffffffffff16848281518110610bf0577f4e487b7100000000000000000000000000000000000000000000000000000000600052603260045260246000fd5b602002602001015173ffffffffffffffffffffffffffffffffffffffff161415610c1e576001915050610c37565b8080610c2990610f96565b915050610b97565b50600090505b92915050565b600081359050610c4c8161107d565b92915050565b600060208284031215610c6457600080fd5b6000610c7284828501610c3d565b91505092915050565b610c8481610ef5565b82525050565b6000610c9582610db9565b610c9f8185610dcf565b9350610caf818560208601610f31565b610cb88161106c565b840191505092915050565b6000610cd0600083610dc4565b9150600082019050919050565b6000610cea601183610dcf565b91507f436f756c646e2774207472616e736665720000000000000000000000000000006000830152602082019050919050565b610d2681610f27565b82525050565b6000610d3782610cc3565b9150819050919050565b6000602082019050610d566000830184610c7b565b92915050565b60006020820190508181036000830152610d768184610c8a565b905092915050565b60006020820190508181036000830152610d9781610cdd565b9050919050565b6000602082019050610db36000830184610d1d565b92915050565b600081519050919050565b600081905092915050565b600082825260208201905092915050565b6000610deb82610f27565b9150610df683610f27565b9250827fffffffffffffffffffffffffffffffffffffffffffffffffffffffffffffffff03821115610e2b57610e2a610fdf565b5b828201905092915050565b6000610e4182610f27565b9150610e4c83610f27565b925082610e5c57610e5b61100e565b5b828204905092915050565b6000610e7282610f27565b9150610e7d83610f27565b9250817fffffffffffffffffffffffffffffffffffffffffffffffffffffffffffffffff0483118215151615610eb657610eb5610fdf565b5b828202905092915050565b6000610ecc82610f27565b9150610ed783610f27565b925082821015610eea57610ee9610fdf565b5b828203905092915050565b6000610f0082610f07565b9050919050565b600073ffffffffffffffffffffffffffffffffffffffff82169050919050565b6000819050919050565b60005b83811015610f4f578082015181840152602081019050610f34565b83811115610f5e576000848401525b50505050565b60006002820490506001821680610f7c57607f821691505b60208210811415610f9057610f8f61103d565b5b50919050565b6000610fa182610f27565b91507fffffffffffffffffffffffffffffffffffffffffffffffffffffffffffffffff821415610fd457610fd3610fdf565b5b600182019050919050565b7f4e487b7100000000000000000000000000000000000000000000000000000000600052601160045260246000fd5b7f4e487b7100000000000000000000000000000000000000000000000000000000600052601260045260246000fd5b7f4e487b7100000000000000000000000000000000000000000000000000000000600052602260045260246000fd5b6000601f19601f8301169050919050565b61108681610f27565b811461109157600080fd5b5056fea2646970667358221220481e79607164436a69df58adbc3b9b9d5b6719ffd6244cf21263f94b3ae02b9564736f6c63430008000033",
  "linkReferences": {},
  "deployedLinkReferences": {}
}